:100000000C942A000C9447000C9447000C94470071
:100010000C9447000C9447000C9447000C94470044
:100020000C9447000C9447000C948A010C944700F0
:100030000C9447000C9447000C9447000C94470024
:100040000C9447000C9447000C9447000C94470014
:100050000C94470011241FBECFE5D8E0DEBFCDBF12
:1000600010E0A0E6B0E0E6E6F3E002C005900D92F5
:10007000A836B107D9F720E0A8E6B0E001C01D928C
:10008000A337B207E1F70E94D7000C94B1010C949A
:100090000000613009F043C0883068F44AB321E0C1
:1000A00030E0B90102C0660F771F8A95E2F7CB01F5
:1000B000842B8ABB089598EF980F983068F447B363
:1000C00021E030E0B90102C0660F771F9A95E2F790
:1000D000CB01842B87BB089590EF980F983068F47C
:1000E00044B321E030E0B90102C0660F771F9A9552
:1000F000E2F7CB01842B84BB089598EE980F9830DB
:1001000008F054C041B321E030E0B90102C0660FED
:10011000771F9A95E2F7CB01842B81BB089561117B
:1001200045C0883070F44AB321E030E0B90102C024
:10013000660F771F8A95E2F7CB01809584238ABBEF
:10014000089598EF980F983070F447B321E030E0AD
:10015000B90102C0660F771F9A95E2F7CB0180952F
:10016000842387BB089590EF980F983070F444B3C0
:1001700021E030E0B90102C0660F771F9A95E2F7DF
:10018000CB018095842384BB089598EE980F983016
:1001900068F441B321E030E0B90102C0660F771F77
:1001A0009A95E2F7CB018095842381BB089561E0A5
:1001B0008CE00E94490061E08DE00E94490061E00E
:1001C0008EE00E94490061E08FE00E9449000E9499
:1001D000070180E090E0089581E080936800089531
:1001E0000F931F93CF93DF93662361F0D62F082FD1
:1001F000192FC0E0D801ED91FD918D010995CF5FD8
:10020000DC13F8CFDF91CF911F910F9108958CE708
:100210000E946D018CEE90E00E9485018091680043
:100220008130E1F71092680064E080E690E00E947F
:10023000F000F4CF80916F00909170000196909340
:10024000700080936F00803D974040F098B380E14C
:10025000892788BB1092700010926F0008958091DA
:100260006D0090916E00019690936E0080936D00EA
:10027000843C994040F098B380E2892788BB109273
:100280006E0010926D00089580916B0090916C004B
:10029000019690936C0080936B00883B9B4040F0EC
:1002A00098B380E4892788BB10926C0010926B0091
:1002B00008958091690090916A00019690936A0078
:1002C000809369008C3A9D4038F088B3805888BB91
:1002D00010926A0010926900089593B7986093BFD6
:1002E00093B79F7B93BF99B7926099BF12BE8CBFA3
:1002F00083B7816083BF83B7826083BF83B78B7FFF
:1003000083BF8FB780688FBF0895909372008093EA
:10031000710008951F920F920FB60F9211242F9320
:100320003F934F935F936F937F938F939F93AF937D
:10033000BF93EF93FF93E0917100F09172000995E4
:10034000FF91EF91BF91AF919F918F917F916F91AD
:100350005F914F913F912F910F900FBE0F901F9083
:060360001895F894FFCF90
:080366001A012F0144015901A5
:00000001FF
