:100000000C942A000C9434000C9434000C943400AA
:100010000C9434000C9434000C9434000C94340090
:100020000C9434000C9434000C9434000C94340080
:100030000C9434000C9434000C9434000C94340070
:100040000C9434000C9434000C9434000C94340060
:100050000C94340011241FBECFE5D8E0DEBFCDBF25
:100060000E9452010C9415020C940000613009F0BA
:1000700043C0883068F44BB321E030E0B90102C0DE
:10008000660F771F8A95E2F7CB01842B8BBB08950F
:1000900098EF980F983068F448B321E030E0B90148
:1000A00002C0660F771F9A95E2F7CB01842B88BBBD
:1000B000089590EF980F983068F445B321E030E050
:1000C000B90102C0660F771F9A95E2F7CB01842B26
:1000D00085BB089598EE980F983008F054C042B34D
:1000E00021E030E0B90102C0660F771F9A95E2F770
:1000F000CB01842B82BB0895611145C0883070F418
:100100004BB321E030E0B90102C0660F771F8A953A
:10011000E2F7CB01809584238BBB089598EF980F6D
:10012000983070F448B321E030E0B90102C0660FA6
:10013000771F9A95E2F7CB018095842388BB0895B9
:1001400090EF980F983070F445B321E030E0B9019A
:1001500002C0660F771F9A95E2F7CB018095842342
:1001600085BB089598EE980F983068F442B321E06B
:1001700030E0B90102C0660F771F9A95E2F7CB0114
:100180008095842382BB0895613009F043C0883094
:1001900068F44AB321E030E0B90102C0660F771F6E
:1001A0008A95E2F7CB01842B8ABB089598EF980FCC
:1001B000983068F447B321E030E0B90102C0660F1F
:1001C000771F9A95E2F7CB01842B87BB089590EFB8
:1001D000980F983068F444B321E030E0B90102C0D0
:1001E000660F771F9A95E2F7CB01842B84BB0895A5
:1001F00098EE980F983008F054C041B321E030E0F9
:10020000B90102C0660F771F9A95E2F7CB01842BE4
:1002100081BB0895611145C0883070F44AB321E074
:1002200030E0B90102C0660F771F8A95E2F7CB0173
:10023000809584238ABB089598EF980F983070F4C6
:1002400047B321E030E0B90102C0660F771F9A95ED
:10025000E2F7CB018095842387BB089590EF980F38
:10026000983070F444B321E030E0B90102C0660F69
:10027000771F9A95E2F7CB018095842384BB08957C
:1002800098EE980F983068F441B321E030E0B9015E
:1002900002C0660F771F9A95E2F7CB018095842301
:1002A00081BB08950E94C3010E946A01C0E08C2FA7
:1002B0000E94B60168EE73E080E090E00E94D601F3
:1002C000C65FCE36A1F768EE73E080E090E00E9452
:1002D000D601ECCF61E08DE10E94C40061E08CE1C9
:1002E0000E94C40061E08AE10E94C40061E08BE1E9
:1002F0000E94C40061E08EE10E94C40061E08FE1D1
:100300000E94C40061E08AE10E94360060E08BE157
:100310000E94360061E08EE10E94360060E08FE1CD
:100320000E9436001DBC1CBC8FB581608FBD8FB58F
:1003300082608FBD8EB588608EBD8EB58F7E8EBD7E
:100340008FB58F7B8FBD8FB58F7E8FBD8FB580684A
:100350008FBD8FB580628FBD8EB581608EBD8EB52D
:1003600082608EBD8EB58B7F8EBD0895982F990FBC
:10037000990F80E064E670E00E94ED017BBD6ABDEC
:1003800079BD68BD089583B7886083BF83B78F7BCD
:1003900083BF12BE8AEF8CBF83B7816083BF83B7F0
:1003A000826083BF83B78B7F83BF0895AB01BC019D
:1003B00088B7816088BF12BE41155105610571057E
:1003C00059F008B601FEFDCF88B7826088BF415062
:1003D000510961097109A9F7089597FB072E16F4D1
:1003E000009407D077FD09D00E94010207FC05D0D8
:1003F0003EF4909581959F4F0895709561957F4F3C
:100400000895AA1BBB1B51E107C0AA1FBB1FA6175B
:10041000B70710F0A61BB70B881F991F5A95A9F7AD
:0E04200080959095BC01CD010895F894FFCF12
:00000001FF
