:100000000C942A000C9434000C9434000C943400AA
:100010000C9434000C9434000C9434000C94340090
:100020000C9434000C9434000C9434000C94340080
:100030000C9434000C9434000C9434000C94340070
:100040000C9434000C9434000C9434000C94340060
:100050000C94340011241FBECFE5D8E0DEBFCDBF25
:100060000E9439050C9486050C94000061E088E03C
:100070000E941F0461E089E00E941F0461E08AE0A1
:100080000E941F0461E08BE00E941F0461E08AE18E
:100090000E941F0461E08BE10E941F0461E08EE179
:1000A0000E941F0461E08FE10E941F0461E08AE169
:1000B0000E942B0361E08BE10E942B0361E08EE143
:1000C0000E942B0361E08FE10E942B0308950F93A0
:1000D0001F93CF93DF93EC018A30910540F561E0E7
:1000E0008AE10E942B0360E08BE10E942B0360E019
:1000F0008EE10E942B0360E08FE10E942B036C2FA6
:10010000617088E00E942B036C2F6695617089E016
:100110000E942B03C2FB662760F98AE00E942B0332
:10012000C3FB662760F98BE00E942B038FC20A97FE
:100130008A35910508F082C09E01ADECBCEC0E94AE
:1001400077058C01169507951695079516950795D1
:10015000B801660F771F000F111F000F111F000F4E
:10016000111F060F171FCE01801B910B8C0161E040
:100170008AE10E942B0360E08BE10E942B0360E088
:100180008EE10E942B0360E08FE10E942B03602F21
:10019000617088E00E942B0301FB662760F989E00B
:1001A0000E942B0302FB662760F98AE00E942B0362
:1001B00003FB662760F98BE00E942B0362E070E08E
:1001C00080E090E00E9460059E01ADECBCEC0E94D6
:1001D0007705EC01D695C795D695C795D695C79561
:1001E00060E08AE10E942B0361E08BE10E942B0317
:1001F00060E08EE10E942B0360E08FE10E942B0300
:100200006C2F617088E00E942B036C2F66956170E3
:1002100089E00E942B03C2FB662760F98AE00E94F6
:100220002B03C3FB662760F98BE00E942B0362E07F
:1002300070E080E090E00E94600508C2CE01845624
:1002400091098438934008F0D4C09E01ADECBCEC19
:100250000E9477058C0116950795169507951695BA
:100260000795B801660F771F000F111F000F111FB0
:10027000000F111F060F171FCE01801B910B8C0161
:1002800061E08AE10E942B0360E08BE10E942B0376
:1002900060E08EE10E942B0360E08FE10E942B035F
:1002A000602F617088E00E942B0301FB662760F9D4
:1002B00089E00E942B0302FB662760F98AE00E9416
:1002C0002B0303FB662760F98BE00E942B0362E09F
:1002D00070E080E090E00E9460059E01ADECBCEC17
:1002E0000E947705AC0156954795569547955695CA
:1002F00047959A010E9477058C01169507951695EA
:10030000079516950795B801660F771F000F111F07
:10031000000F111F000F111F060F171FCA01801BAE
:10032000910B8C0161E08AE10E942B0361E08BE17B
:100330000E942B0360E08EE10E942B0360E08FE1BE
:100340000E942B03602F617088E00E942B0301FB49
:10035000662760F989E00E942B0302FB662760F99B
:100360008AE00E942B0303FB662760F98BE00E9462
:100370002B0362E070E080E090E00E9460059E0147
:100380003695279536952795ABE7B4E10E9477051A
:10039000EC01D695C79560E08AE10E942B0360E0EE
:1003A0008BE10E942B0361E08EE10E942B0360E051
:1003B0008FE10E942B036C2F617088E00E942B0359
:1003C0006C2F6695617089E00E942B03C2FB662743
:1003D00060F98AE00E942B03C3FB662760F98BE07B
:1003E0000E942B0362E070E080E090E00E946005D4
:1003F0002DC19E01ADECBCEC0E9477058C011695D9
:1004000007951695079516950795B801660F771FFE
:10041000000F111F000F111F000F111F060F171FD4
:10042000CE01801B910B8C0161E08AE10E942B03BD
:1004300060E08BE10E942B0360E08EE10E942B03C1
:1004400060E08FE10E942B03602F617088E00E94C2
:100450002B0301FB662760F989E00E942B0302FB56
:10046000662760F98AE00E942B0303FB662760F988
:100470008BE00E942B0362E070E080E090E00E943D
:1004800060059E01ADECBCEC0E947705AC01569571
:10049000479556954795569547959A010E94770539
:1004A0008C01169507951695079516950795B80131
:1004B000660F771F000F111F000F111F000F111F74
:1004C000060F171FCA01801B910B8C0160E08AE1A7
:1004D0000E942B0361E08BE10E942B0360E08EE120
:1004E0000E942B0360E08FE10E942B03602F61705C
:1004F00088E00E942B0301FB662760F989E00E94D7
:100500002B0302FB662760F98AE00E942B0303FBA2
:10051000662760F98BE00E942B0362E070E080E0C8
:1005200090E00E9460059E013695279536952795A7
:10053000ABE7B4E10E947705AC01569547959A0167
:10054000ADECBCEC0E9477058C01169507951695CD
:10055000079516950795B801660F771F000F111FB5
:10056000000F111F000F111F060F171FCA01801B5C
:10057000910B8C0160E08AE10E942B0360E08BE12B
:100580000E942B0361E08EE10E942B0360E08FE16B
:100590000E942B03602F617088E00E942B0301FBF7
:1005A000662760F989E00E942B0302FB662760F949
:1005B0008AE00E942B0303FB662760F98BE00E9410
:1005C0002B0362E070E080E090E00E9460059E01F5
:1005D000369527953695279536952795A5ECB0E263
:1005E0000E947705EC01D295C295CF70CD27DF70C0
:1005F000CD2760E08AE10E942B0360E08BE10E943E
:100600002B0360E08EE10E942B0361E08FE10E94EA
:100610002B036C2F617088E00E942B036C2F669572
:10062000617089E00E942B03C2FB662760F98AE0B3
:100630000E942B03C3FB662760F98BE00E942B030B
:1006400062E070E080E090E00E946005DF91CF9171
:100650001F910F910895613009F043C0883068F40C
:100660004BB321E030E0B90102C0660F771F8A95D5
:10067000E2F7CB01842B8BBB089598EF980F98304D
:1006800068F448B321E030E0B90102C0660F771F7B
:100690009A95E2F7CB01842B88BB089590EF980FD1
:1006A000983068F445B321E030E0B90102C0660F2C
:1006B000771F9A95E2F7CB01842B85BB089598EEBE
:1006C000980F983008F054C042B321E030E0B901EF
:1006D00002C0660F771F9A95E2F7CB01842B82BB8D
:1006E0000895611145C0883070F44BB321E030E0CB
:1006F000B90102C0660F771F8A95E2F7CB0180959A
:1007000084238BBB089598EF980F983070F448B30A
:1007100021E030E0B90102C0660F771F9A95E2F739
:10072000CB018095842388BB089590EF980F983073
:1007300070F445B321E030E0B90102C0660F771FC5
:100740009A95E2F7CB018095842385BB089598EEB6
:10075000980F983068F442B321E030E0B90102C04C
:10076000660F771F9A95E2F7CB018095842382BBB1
:1007700008958830A0F449B321E030E0082E02C08B
:10078000220F331F0A94E2F750E024233523A901F6
:1007900002C0559547958A95E2F7CA01089598EFEA
:1007A000980F9830B0F426B3482F50E048505109C4
:1007B00081E090E0042E02C0880F991F0A94E2F7AE
:1007C00030E08223932302C0959587954A95E2F7FE
:1007D000089590EF980F9830B0F423B3482F50E06D
:1007E0004051510981E090E0042E02C0880F991F0A
:1007F0000A94E2F730E08223932302C0959587950F
:100800004A95E2F7089598EE980F9830B0F420B327
:10081000482F50E04851510981E090E0042E02C079
:10082000880F991F0A94E2F730E08223932302C0D5
:10083000959587954A95E2F7089580E0089561308F
:1008400009F043C0883068F44AB321E030E0B901D0
:1008500002C0660F771F8A95E2F7CB01842B8ABB13
:10086000089598EF980F983068F447B321E030E08E
:10087000B90102C0660F771F9A95E2F7CB01842B6E
:1008800087BB089590EF980F983068F444B321E047
:1008900030E0B90102C0660F771F9A95E2F7CB01ED
:1008A000842B84BB089598EE980F983008F054C0BC
:1008B00041B321E030E0B90102C0660F771F9A957D
:1008C000E2F7CB01842B81BB0895611145C08830CC
:1008D00070F44AB321E030E0B90102C0660F771F1F
:1008E0008A95E2F7CB01809584238ABB089598EF1F
:1008F000980F983070F447B321E030E0B90102C09E
:10090000660F771F9A95E2F7CB018095842387BB0A
:10091000089590EF980F983070F444B321E030E0E0
:10092000B90102C0660F771F9A95E2F7CB01809557
:10093000842384BB089598EE980F983068F441B3EF
:1009400021E030E0B90102C0660F771F9A95E2F707
:10095000CB018095842381BB089561E085E10E94ED
:100960001F0461E086E10E941F0461E087E10E94AC
:100970001F0460E082E10E941F0460E083E10E94A6
:100980001F0460E084E10E941F0461E082E10E9494
:100990002B0361E083E10E942B0361E084E10E946C
:1009A0002B03089560E085E10E942B0361E086E15E
:1009B0000E942B0361E087E10E942B0382E10E94E9
:1009C000B903882309F443C083E10E94B903882353
:1009D00009F43FC084E10E94B9038823E1F161E09A
:1009E00085E10E942B0361E087E10E942B0360E018
:1009F00086E10E942B0382E10E94B903882369F1FA
:100A000083E10E94B903882351F184E10E94B90374
:100A1000882339F161E085E10E942B0361E086E1E2
:100A20000E942B0360E087E10E942B0382E10E9479
:100A3000B9038823C1F083E10E94B9038823A9F098
:100A400084E10E94B903882391F080E0089581E059
:100A5000089584E0089587E0089582E0089585E090
:100A6000089588E0089583E0089586E0089589E078
:100A700008950E944D050E94AD040E94360064E175
:100A800070E080E090E00E9460050E94D20488231C
:100A9000B1F390E00E946700F2CF83B7886083BF14
:100AA00083B78F7B83BF12BE8AEF8CBF83B7816011
:100AB00083BF83B7826083BF83B78B7F83BF089573
:100AC000AB01BC0188B7816088BF12BE41155105DA
:100AD0006105710559F008B601FEFDCF88B7826047
:100AE00088BF4150510961097109A9F70895A29F72
:100AF000B001B39FC001A39F700D811D1124911DF2
:100B0000B29F700D811D1124911D0895F894FFCF9F
:00000001FF
