:100000000C942A000C9447000C9447000C94470071
:100010000C9447000C9447000C9447000C94470044
:100020000C9447000C9447000C943D020C9447003C
:100030000C9447000C9447000C9447000C94470024
:100040000C9447000C9447000C9447000C94470014
:100050000C94470011241FBECFE5D8E0DEBFCDBF12
:1000600010E0A0E6B0E0ECECF4E002C005900D92E8
:10007000AC37B107D9F720E0ACE7B0E001C01D9282
:10008000AC39B207E1F70E94D7000C9464020C94DB
:100090000000613009F043C0883068F44AB321E0C1
:1000A00030E0B90102C0660F771F8A95E2F7CB01F5
:1000B000842B8ABB089598EF980F983068F447B363
:1000C00021E030E0B90102C0660F771F9A95E2F790
:1000D000CB01842B87BB089590EF980F983068F47C
:1000E00044B321E030E0B90102C0660F771F9A9552
:1000F000E2F7CB01842B84BB089598EE980F9830DB
:1001000008F054C041B321E030E0B90102C0660FED
:10011000771F9A95E2F7CB01842B81BB089561117B
:1001200045C0883070F44AB321E030E0B90102C024
:10013000660F771F8A95E2F7CB01809584238ABBEF
:10014000089598EF980F983070F447B321E030E0AD
:10015000B90102C0660F771F9A95E2F7CB0180952F
:10016000842387BB089590EF980F983070F444B3C0
:1001700021E030E0B90102C0660F771F9A95E2F7DF
:10018000CB018095842384BB089598EE980F983016
:1001900068F441B321E030E0B90102C0660F771F77
:1001A0009A95E2F7CB018095842381BB0895CF9384
:1001B000DF93CDB7DEB76C970FB6F894DEBF0FBEF6
:1001C000CDBF61E08CE00E94490061E08DE00E94BB
:1001D000490061E08EE00E94490061E08FE00E94EA
:1001E00049000E944C0187E0E0E6F0E0DE01119654
:1001F00001900D928A95E1F787E0E7E6F0E0DE01F5
:10020000189601900D928A95E1F787E0EEE6F0E00E
:10021000DE011F9601900D928A95E1F787E0E5E7F0
:10022000F0E0DE01569601900D928A95E1F7298162
:100230003A814B815C816D817E818F810E94D801E2
:10024000288539854A855B856C857D858E850E94EC
:10025000D8012F85388949895A896B897C898D898C
:100260000E94D8012E893F89488D598D6A8D7B8DDA
:100270008C8D0E94D8010E94720180E090E06C9603
:100280000FB6F894DEBF0FBECDBFDF91CF910895BA
:1002900081E080937D00089588E491E00E94380217
:1002A00008950F931F93CF93DF936623B1F0062F2A
:1002B000C82FD92F10E08C819D8101979D838C835D
:1002C000892B39F4E881F98109958A819B819D8385
:1002D0008C831F5F27960113EECFDF91CF911F9183
:1002E0000F910895CF93DF93CDB7DEB727970FB661
:1002F000F894DEBF0FBECDBF80E045C051E0580F7F
:1003000090917C005917F0F5452F27E0829FC0019E
:10031000112482589F4FBC016A5F7F4F042F10E069
:10032000A7E04A9FF0011124E258FF4FDB013C9106
:100330002681231710F527E0FC01DE0111960190BC
:100340000D922A95E1F79801220F331F220F331FD8
:10035000220F331F201B310B22583F4F17E0F901AA
:10036000DC0101900D921A95E1F717E0FE0131963C
:10037000D90101900D921A95E1F74F5F20917C0011
:10038000421760F2852F90917C00891708F4B6CF50
:100390008CE70E94200280917D008130E1F710926D
:1003A0007D0060917C008EE790E00E945101F3CFC8
:1003B000CF93DF93CDB7DEB727970FB6F894DEBFA4
:1003C0000FBECDBF29833A834B835C836D837E83CD
:1003D0008F8380917C008430B0F4A0917C0087E012
:1003E000A89FD0011124A258BF4F87E0FE0131968B
:1003F00001900D928A95E1F780917C008F5F809348
:100400007C0081E001C080E027960FB6F894DEBF43
:100410000FBECDBFDF91CF91089598B380E18927BA
:1004200088BB089598B380E2892788BB089598B364
:1004300080E4892788BB089588B3805888BB0895D5
:1004400093B7986093BF93B79F7B93BF99B7926020
:1004500099BF12BE8CBF83B7816083BF83B78260B0
:1004600083BF83B78B7F83BF8FB780688FBF0895AB
:1004700090939B0080939A0008951F920F920FB65D
:100480000F9211242F933F934F935F936F937F931A
:100490008F939F93AF93BF93EF93FF93E0919A0055
:1004A000F0919B000995FF91EF91BF91AF919F91C2
:1004B0008F917F916F915F914F913F912F910F900D
:0C04C0000FBE0F901F901895F894FFCF0E
:1004CC000D02D007D007001202C409C4090117029B
:0C04DC00B80BB80B021C02AC0DAC0D03F9
:00000001FF
