:100000000C942A000C9447000C9447000C94470071
:100010000C9447000C9447000C9447000C94470044
:100020000C9447000C9447000C94E3010C94470097
:100030000C9447000C9447000C9447000C94470024
:100040000C9447000C9447000C9447000C94470014
:100050000C94470011241FBECFE5D8E0DEBFCDBF12
:1000600010E0A0E6B0E0E8E1F4E002C005900D92F7
:10007000A837B107D9F720E0A8E7B0E001C01D928A
:10008000A439B207E1F70E94D7000C940A020C943D
:100090000000613009F043C0883068F44AB321E0C1
:1000A00030E0B90102C0660F771F8A95E2F7CB01F5
:1000B000842B8ABB089598EF980F983068F447B363
:1000C00021E030E0B90102C0660F771F9A95E2F790
:1000D000CB01842B87BB089590EF980F983068F47C
:1000E00044B321E030E0B90102C0660F771F9A9552
:1000F000E2F7CB01842B84BB089598EE980F9830DB
:1001000008F054C041B321E030E0B90102C0660FED
:10011000771F9A95E2F7CB01842B81BB089561117B
:1001200045C0883070F44AB321E030E0B90102C024
:10013000660F771F8A95E2F7CB01809584238ABBEF
:10014000089598EF980F983070F447B321E030E0AD
:10015000B90102C0660F771F9A95E2F7CB0180952F
:10016000842387BB089590EF980F983070F444B3C0
:1001700021E030E0B90102C0660F771F9A95E2F7DF
:10018000CB018095842384BB089598EE980F983016
:1001900068F441B321E030E0B90102C0660F771F77
:1001A0009A95E2F7CB018095842381BB0895CF9384
:1001B000DF93CDB7DEB768970FB6F894DEBF0FBEFA
:1001C000CDBF61E08CE00E94490061E08DE00E94BB
:1001D000490061E08EE00E94490061E08FE00E94EA
:1001E00049000E94480186E0E0E6F0E0DE01119659
:1001F00001900D928A95E1F786E0E6E6F0E0DE01F7
:10020000179601900D928A95E1F786E0ECE6F0E012
:10021000DE011D9601900D928A95E1F786E0E2E7F6
:10022000F0E0DE01539601900D928A95E1F7498145
:100230005A816B817C818D819E810E947E014F81DC
:10024000588569857A858B859C850E947E014D85C0
:100250005E856F85788989899A890E947E014B899C
:100260005C896D897E898F89988D0E947E010E94AC
:100270006E0180E090E068960FB6F894DEBF0FBE86
:10028000CDBFDF91CF91089581E0809379000895EB
:1002900084E491E00E94DE0108950F931F93CF93B1
:1002A000DF936623B1F0062FC82FD92F10E08C8181
:1002B0009D8101979D838C83892B39F4E881F98195
:1002C00009958A819B819D838C831F5F26960113EC
:1002D000EECFDF91CF911F910F9108958CE70E948F
:1002E000C601809179008130E1F710927900609128
:1002F00078008AE790E00E944D01F3CFCF93DF931F
:1003000000D000D000D0CDB7DEB749835A836B83CD
:100310007C838D839E83809178008430D0F480919B
:10032000780090E0DC01AA0FBB1FA80FB91FAA0F2D
:10033000BB1FA658BF4F86E0FE01319601900D927B
:100340008A95E1F7809178008F5F8093780081E053
:1003500001C080E026960FB6F894DEBF0FBECDBF79
:10036000DF91CF91089598B380E1892788BB0895E4
:1003700098B380E2892788BB089598B380E48927E1
:1003800088BB089588B3805888BB089593B7986058
:1003900093BF93B79F7B93BF99B7926099BF12BEEB
:1003A0008CBF83B7816083BF83B7826083BF83B70D
:1003B0008B7F83BF8FB780688FBF08959093930022
:1003C0008093920008951F920F920FB60F921124FE
:1003D0002F933F934F935F936F937F938F939F934D
:1003E000AF93BF93EF93FF93E0919200F09193004E
:1003F0000995FF91EF91BF91AF919F918F917F915F
:100400006F915F914F913F912F910F900FBE0F9081
:080410001F901895F894FFCF2E
:10041800B301D007D007B801C409C409BD01B80B9E
:08042800B80BC201AC0DAC0DD4
:00000001FF
