:100000000C942A000C943C000C943C000C943C0092
:100010000C943C000C943C000C943C000C943C0070
:100020000C943C000C943C000C94F9010C943C00A2
:100030000C943C000C943C000C943C000C943C0050
:100040000C943C000C943C000C943C000C943C0040
:100050000C943C0011241FBECFE5D8E0DEBFCDBF1D
:1000600020E0A0E6B0E001C01D92A038B207E1F7A1
:100070000E94CC000C9420020C940000613009F026
:1000800043C0883068F44AB321E030E0B90102C0CF
:10009000660F771F8A95E2F7CB01842B8ABB089500
:1000A00098EF980F983068F447B321E030E0B90139
:1000B00002C0660F771F9A95E2F7CB01842B87BBAE
:1000C000089590EF980F983068F444B321E030E041
:1000D000B90102C0660F771F9A95E2F7CB01842B16
:1000E00084BB089598EE980F983008F054C041B33F
:1000F00021E030E0B90102C0660F771F9A95E2F760
:10010000CB01842B81BB0895611145C0883070F408
:100110004AB321E030E0B90102C0660F771F8A952B
:10012000E2F7CB01809584238ABB089598EF980F5E
:10013000983070F447B321E030E0B90102C0660F97
:10014000771F9A95E2F7CB018095842387BB0895AA
:1001500090EF980F983070F444B321E030E0B9018B
:1001600002C0660F771F9A95E2F7CB018095842332
:1001700084BB089598EE980F983068F441B321E05D
:1001800030E0B90102C0660F771F9A95E2F7CB0104
:100190008095842381BB0895CF93DF93CDB7DEB7DD
:1001A0006C970FB6F894DEBF0FBECDBF61E08CE058
:1001B0000E943E0061E08DE00E943E0061E08EE022
:1001C0000E943E0061E08FE00E943E000E945E01BE
:1001D00087E0FE013196DF01982F1D929A95E9F78D
:1001E00029EC31E03A83298320ED37E03C832B83EF
:1001F0003E832D833796DF01982F1D929A95E9F75C
:100200002EEC31E03987288724EC39E03B872A87B8
:100210003D872C873796DF01982F1D929A95E9F735
:1002200023ED31E0388B2F8728EB3BE03A8B298B8D
:100230003C8B2B8B3796DF011D928A95E9F788ED71
:1002400091E09F8B8E8B8CEA9DE0998F888F9B8F9E
:100250008A8F29813A814B815C816D817E818F817A
:100260000E949401288539854A855B856C857D854A
:100270008E850E9494012F85388949895A896B8916
:100280007C898D890E9494012E893F89488D598DE2
:100290006A8D7B8D8C8D0E9494010E94840180E088
:1002A00090E06C960FB6F894DEBF0FBECDBFDF9125
:1002B000CF91089581E08093610008958AE591E0EF
:1002C0000E94F40108950F931F93CF93DF93662349
:1002D000B1F0062FC82FD92F10E08C819D81019796
:1002E0009D838C83892B39F4E881F98109958A8172
:1002F0009B819D838C831F5F27960113EECFDF9137
:10030000CF911F910F9108958CE70E94DC0180919D
:1003100061008130E1F7109261006091600082E637
:1003200090E00E946301F3CFCF93DF93CDB7DEB7A8
:1003300027970FB6F894DEBF0FBECDBF29833A834F
:100340004B835C836D837E838F83809160008430D8
:10035000B0F4A091600087E0A89FD0011124AE59AD
:10036000BF4F87E0FE01319601900D928A95E1F72B
:10037000809160008F5F8093600081E001C080E029
:1003800027960FB6F894DEBF0FBECDBFDF91CF9199
:10039000089598B380E1892788BB089598B380E2D7
:1003A000892788BB089598B380E4892788BB08957E
:1003B00088B3805888BB089593B7986093BF93B76C
:1003C0009F7B93BF99B7926099BF12BE8CBF83B7D2
:1003D000816083BF83B7826083BF83B78B7F83BF16
:1003E0008FB780688FBF089590937F0080937E00C1
:1003F00008951F920F920FB60F9211242F933F93DF
:100400004F935F936F937F938F939F93AF93BF931C
:10041000EF93FF93E0917E00F0917F000995FF91AB
:10042000EF91BF91AF919F918F917F916F915F916C
:100430004F913F912F910F900FBE0F901F901895E5
:04044000F894FFCF5E
:00000001FF
