:100000000C942A000C943C000C943C000C9471015C
:100010000C943C000C943C000C943C000C943C0070
:100020000C943C000C943C000C945A010C943C0041
:100030000C943C000C943C000C943C000C943C0050
:100040000C943C000C943C000C943C000C943C0040
:100050000C943C0011241FBECFE5D8E0DEBFCDBF1D
:1000600020E0A0E6B0E001C01D92A336B207E1F7A0
:100070000E9480010C9428020C940000613009F069
:1000800043C0883068F44BB321E030E0B90102C0CE
:10009000660F771F8A95E2F7CB01842B8BBB0895FF
:1000A00098EF980F983068F448B321E030E0B90138
:1000B00002C0660F771F9A95E2F7CB01842B88BBAD
:1000C000089590EF980F983068F445B321E030E040
:1000D000B90102C0660F771F9A95E2F7CB01842B16
:1000E00085BB089598EE980F983008F054C042B33D
:1000F00021E030E0B90102C0660F771F9A95E2F760
:10010000CB01842B82BB0895611145C0883070F407
:100110004BB321E030E0B90102C0660F771F8A952A
:10012000E2F7CB01809584238BBB089598EF980F5D
:10013000983070F448B321E030E0B90102C0660F96
:10014000771F9A95E2F7CB018095842388BB0895A9
:1001500090EF980F983070F445B321E030E0B9018A
:1001600002C0660F771F9A95E2F7CB018095842332
:1001700085BB089598EE980F983068F442B321E05B
:1001800030E0B90102C0660F771F9A95E2F7CB0104
:100190008095842382BB0895613009F043C0883084
:1001A00068F44AB321E030E0B90102C0660F771F5E
:1001B0008A95E2F7CB01842B8ABB089598EF980FBC
:1001C000983068F447B321E030E0B90102C0660F0F
:1001D000771F9A95E2F7CB01842B87BB089590EFA8
:1001E000980F983068F444B321E030E0B90102C0C0
:1001F000660F771F9A95E2F7CB01842B84BB089595
:1002000098EE980F983008F054C041B321E030E0E8
:10021000B90102C0660F771F9A95E2F7CB01842BD4
:1002200081BB0895611145C0883070F44AB321E064
:1002300030E0B90102C0660F771F8A95E2F7CB0163
:10024000809584238ABB089598EF980F983070F4B6
:1002500047B321E030E0B90102C0660F771F9A95DD
:10026000E2F7CB018095842387BB089590EF980F28
:10027000983070F444B321E030E0B90102C0660F59
:10028000771F9A95E2F7CB018095842384BB08956C
:1002900098EE980F983068F441B321E030E0B9014E
:1002A00002C0660F771F9A95E2F7CB0180958423F1
:1002B00081BB08951F920F920FB60F9211248F9356
:1002C0009F938091610090916200019690936200EB
:1002D000809361009F918F910F900FBE0F901F90A0
:1002E00018951F920F920FB60F9211248F9381E0F1
:1002F000809360008F910F900FBE0F901F90189504
:100300000E940F0284B7806484BF8BB780628BBF6A
:1003100061E08DE00E94CC0061E08EE00E94CC00A4
:1003200061E08FE00E94CC0060E08AE00E94CC0097
:1003300060E08DE00E943E0060E08EE00E943E00A2
:1003400060E08FE00E943E0061E08DE00E943E0090
:1003500060E08EE00E943E0060E08FE00E943E0080
:1003600080916000813039F4109260001092620038
:100370001092610032C08091610090916200883ECD
:10038000934010F3109262001092610026C0109208
:10039000600010926200109261001FC080916100A5
:1003A00090916200883E9340C0F0109262001092DB
:1003B000610024C0109260001092620010926100EF
:1003C0000CC08091610090916200883E9340B0F033
:1003D0001092620010926100B7CF60E08DE00E9441
:1003E0003E0060E08EE00E943E0061E08FE00E94EF
:1003F0003E0080916000813089F6C9CF60E08DE0D9
:100400000E943E0061E08EE00E943E0060E08FE0CE
:100410000E943E0080916000813099F6CBCF83B777
:10042000886083BF83B78F7B83BF89B7826089BFB2
:1004300012BE8CE78CBF83B7816083BF83B78260B5
:1004400083BF83B78B7F83BF8FB780688FBF0895CB
:04045000F894FFCF4E
:00000001FF
