:100000000C942A000C943F000C943F000C943F0089
:100010000C943F000C943F000C943F000C943F0064
:100020000C943F000C943F000C943F000C943F0054
:100030000C943F000C943F000C943F000C943F0044
:100040000C943F000C943F000C943F000C943F0034
:100050000C943F0011241FBECFE5D8E0DEBFCDBF1A
:1000600011E0A0E6B0E0E8EBF9E002C005900D92E7
:10007000A030B107D9F70E945D030C94DA040C9408
:100080000000613009F043C0883068F44BB321E0D0
:1000900030E0B90102C0660F771F8A95E2F7CB0105
:1000A000842B8BBB089598EF980F983068F448B371
:1000B00021E030E0B90102C0660F771F9A95E2F7A0
:1000C000CB01842B88BB089590EF980F983068F48B
:1000D00045B321E030E0B90102C0660F771F9A9561
:1000E000E2F7CB01842B85BB089598EE980F9830EA
:1000F00008F054C042B321E030E0B90102C0660FFD
:10010000771F9A95E2F7CB01842B82BB089561118A
:1001100045C0883070F44BB321E030E0B90102C033
:10012000660F771F8A95E2F7CB01809584238BBBFE
:10013000089598EF980F983070F448B321E030E0BC
:10014000B90102C0660F771F9A95E2F7CB0180953F
:10015000842388BB089590EF980F983070F445B3CE
:1001600021E030E0B90102C0660F771F9A95E2F7EF
:10017000CB018095842385BB089598EE980F983025
:1001800068F442B321E030E0B90102C0660F771F86
:100190009A95E2F7CB018095842382BB089588303D
:1001A000A0F449B321E030E0082E02C0220F331F33
:1001B0000A94E2F750E024233523A90102C05595A3
:1001C00047958A95E2F7CA01089598EF980F9830FD
:1001D000B0F426B3482F50E04850510981E090E038
:1001E000042E02C0880F991F0A94E2F730E08223A0
:1001F000932302C0959587954A95E2F7089590EF6D
:10020000980F9830B0F423B3482F50E04051510973
:1002100081E090E0042E02C0880F991F0A94E2F753
:1002200030E08223932302C0959587954A95E2F7A3
:10023000089598EE980F9830B0F420B3482F50E00E
:100240004851510981E090E0042E02C0880F991FA7
:100250000A94E2F730E08223932302C095958795B4
:100260004A95E2F7089580E00895613009F043C0AF
:10027000883068F44AB321E030E0B90102C0660F6B
:10028000771F8A95E2F7CB01842B8ABB089598EFFC
:10029000980F983068F447B321E030E0B90102C00C
:1002A000660F771F9A95E2F7CB01842B87BB0895E1
:1002B00090EF980F983068F444B321E030E0B90132
:1002C00002C0660F771F9A95E2F7CB01842B84BB9F
:1002D000089598EE980F983008F054C041B321E08B
:1002E00030E0B90102C0660F771F9A95E2F7CB01A3
:1002F000842B81BB0895611145C0883070F44AB3E6
:1003000021E030E0B90102C0660F771F8A95E2F75D
:10031000CB01809584238ABB089598EF980F98307D
:1003200070F447B321E030E0B90102C0660F771FD7
:100330009A95E2F7CB018095842387BB089590EFCF
:10034000980F983070F444B321E030E0B90102C056
:10035000660F771F9A95E2F7CB018095842384BBC3
:10036000089598EE980F983068F441B321E030E09A
:10037000B90102C0660F771F9A95E2F7CB0180950D
:10038000842381BB0895CF93DF93C82F61E070E091
:1003900080E090E00E94C30460E081E00E944100A0
:1003A00060E082E00E94410061E083E00E94410041
:1003B000C4FB662760F984E00E944100C5FB662704
:1003C00060F985E00E944100C6FB662760F986E07F
:1003D0000E9441006C2F661F6627661F87E00E94FF
:1003E000410061E070E080E090E00E94C30460E0C2
:1003F00081E00E94410060E082E00E94410060E0F4
:1004000083E00E94410061E070E080E090E00E94A3
:10041000C30461E083E00E94410061E070E080E09D
:1004200090E00E94C30480E1C89FE00111246C2F7A
:100430006295617084E00E944100C5FB662760F907
:1004400085E00E944100C6FB662760F986E00E94B5
:1004500041006C2F661F6627661F87E00E944100DF
:1004600061E070E080E090E00E94C30460E081E021
:100470000E94410060E082E00E94410060E083E071
:100480000E94410061E070E080E090E00E94C304BF
:1004900061E083E00E94410061E070E080E090E074
:1004A0000E94C304DF91CF91089561E070E080E085
:1004B00090E00E94C30461E081E00E94350161E0A8
:1004C00082E00E94350161E083E00E94350161E035
:1004D00084E00E94350161E085E00E94350161E021
:1004E00086E00E94350161E087E00E94350183E3E8
:1004F0000E94C30182E30E94C30188E20E94C301FB
:1005000081E00E94C3018EE00E94C30180E80E9446
:10051000C30186E00E94C3018CE00E94C3010895DC
:10052000CF93DF93C82F61E070E080E090E00E94FD
:10053000C30461E081E00E94410060E082E00E942B
:10054000410061E083E00E944100C4FB662760F93E
:1005500084E00E944100C5FB662760F985E00E94A7
:100560004100C6FB662760F986E00E9441006C2FBF
:10057000661F6627661F87E00E94410061E070E009
:1005800080E090E00E94C30460E083E00E944100AC
:1005900061E070E080E090E00E94C30461E083E0ED
:1005A0000E94410061E070E080E090E00E94C3049E
:1005B00080E1C89FE00111246C2F6295617084E096
:1005C0000E944100C5FB662760F985E00E9441005A
:1005D000C6FB662760F986E00E9441006C2F661F0B
:1005E0006627661F87E00E94410061E070E080E0BE
:1005F00090E00E94C30460E083E00E94410061E05B
:1006000070E080E090E00E94C30461E083E00E941B
:10061000410061E070E080E090E00E94C304DF915F
:10062000CF9108950F931F93CF93DF938C01C0E078
:10063000D0E009C00E9490022196C031D10519F482
:1006400084E10E94C301F80181918F018111F2CFF1
:10065000DF91CF911F910F910895813029F48FE799
:10066000860F0E94C3010895823021F48FEB860F1C
:100670000E94C301089581E00E94C30180E80E94A6
:10068000C30108950F931F93CF93DF93883080F4B5
:100690008B01880F880F880F805C0E94C301E801DE
:1006A000085F1F4F89910E949002C017D107D1F7B0
:1006B000DF91CF911F910F910895CF93DF93CDB725
:1006C000DEB7CF59D1090FB6F894DEBF0FBECDBF4C
:1006D00088E0E0E7F0E0DE01119601900D928A9546
:1006E000E1F78AE0E8E7F0E0DE01199601900D926B
:1006F0008A95E1F78CE0E2E8F0E0DE0153960190A4
:100700000D928A95E1F78EE0EEE8F0E0DE015F966B
:1007100001900D928A95E1F781E1ECE9F0E0DE01CC
:100720009D9601900D928A95E1F781E1EDEAF0E066
:10073000DE01DE9601900D928A95E1F781E1EEEB04
:10074000F0E0DE01A15BBF4F01900D928A95E1F7C9
:100750008FE0EFECF0E0DE01A05ABF4F01900D9268
:100760008A95E1F780E1EEEDF0E0DE01A159BF4F9F
:1007700001900D928A95E1F781E1EEEEF0E0DE0165
:10078000A158BF4F01900D928A95E1F788E0E0E60D
:10079000F0E0DE01A057BF4F01900D928A95E1F77E
:1007A00088E0E8E6F0E0DE01A856BF4F01900D9228
:1007B0008A95E1F760E084E10E94350160E08AE01B
:1007C0000E9435010E94B0040E9455020E943B0322
:1007D000BE0160577F4F80E00E944203BE01685611
:1007E0007F4F81E00E94420310E0112321F011307D
:1007F00009F443C0FACF0E943B0365E081E00E9408
:100800002D03CE0101960E94120364EF71E080E097
:1008100090E00E94C3040E943B0364E081E00E94D8
:100820002D03CE0109960E94120364EF71E080E06F
:1008300090E00E94C3040E943B0363E081E00E94B9
:100840002D03CE0143960E94120364EF71E080E015
:1008500090E00E94C3040E943B0362E081E00E949A
:100860002D03CE014F960E94120364EF71E080E0E9
:1008700090E00E94C30411E0B8CF0E943B0361E006
:1008800081E00E942D03CE018D960E94120361E04B
:1008900082E00E942D03CE0181589F4F0E941203D7
:1008A00084E10E94CF008111FBCF8AE00E94CF003B
:1008B0008111F6CF84E10E94CF008AE00E94CF0030
:1008C0000E943B0361E081E00E942D03CE01CE96A1
:1008D0000E94120361E082E00E942D03CE01815844
:1008E0009F4F0E9412030E943B0361E081E00E943F
:1008F0002D03CE01815B9F4F0E94120361E082E0D5
:100900000E942D03CE0181589F4F0E9412030E9426
:100910003B0361E081E00E942D03CE01805A9F4F8E
:100920000E94120361E082E00E942D03CE018158F3
:100930009F4F0E9412030E943B0361E081E00E94EE
:100940002D03CE0181599F4F0E94120361E082E086
:100950000E942D03CE0181589F4F0E94120345CF64
:1009600083B7886083BF83B78F7B83BF12BE8AEF54
:100970008CBF83B7816083BF83B7826083BF83B737
:100980008B7F83BF0895AB01BC0188B7816088BFAE
:1009900012BE411551056105710559F008B601FEF9
:1009A000FDCF88B7826088BF415051096109710944
:0809B000A9F70895F894FFCFA8
:1009B800000A0000040A110000009B20EE8EE000EF
:1009C80057454C434F4D45002D57454C434F4D45DA
:1009D8002D002D2D57454C434F4D452D2D002D2DC8
:1009E8002D57454C434F4D452D2D2D004973204E15
:1009F800696C652036363835206B6D3F0048697460
:100A08006C657220646965642033302D36004D6151
:100A18006E557464206573742E203138373800435E
:100A28007237203335207965617273203F00424F59
:100A3800534348206573742E2031383836003E59A8
:100A480065732020202020202020203E4E4F0000CB
:00000001FF
