S01200004C6364446973706C61792E7372656329
S11300000C942A000C943F000C943F000C943F0085
S11300100C943F000C943F000C943F000C943F0060
S11300200C943F000C943F000C943F000C943F0050
S11300300C943F000C943F000C943F000C943F0040
S11300400C943F000C943F000C943F000C943F0030
S11300500C943F0011241FBECFE5D8E0DEBFCDBF16
S113006010E0A0E6B0E0EAE7F6E002C005900D92E9
S1130070A636B107D9F70E94EE020C943B030C9408
S11300800000613009F043C0883068F44BB321E0CC
S113009030E0B90102C0660F771F8A95E2F7CB0101
S11300A0842B8BBB089598EF980F983068F448B36D
S11300B021E030E0B90102C0660F771F9A95E2F79C
S11300C0CB01842B88BB089590EF980F983068F487
S11300D045B321E030E0B90102C0660F771F9A955D
S11300E0E2F7CB01842B85BB089598EE980F9830E6
S11300F008F054C042B321E030E0B90102C0660FF9
S1130100771F9A95E2F7CB01842B82BB0895611186
S113011045C0883070F44BB321E030E0B90102C02F
S1130120660F771F8A95E2F7CB01809584238BBBFA
S1130130089598EF980F983070F448B321E030E0B8
S1130140B90102C0660F771F9A95E2F7CB0180953B
S1130150842388BB089590EF980F983070F445B3CA
S113016021E030E0B90102C0660F771F9A95E2F7EB
S1130170CB018095842385BB089598EE980F983021
S113018068F442B321E030E0B90102C0660F771F82
S11301909A95E2F7CB018095842382BB0895613060
S11301A009F043C0883068F44AB321E030E0B90173
S11301B002C0660F771F8A95E2F7CB01842B8ABBB6
S11301C0089598EF980F983068F447B321E030E031
S11301D0B90102C0660F771F9A95E2F7CB01842B11
S11301E087BB089590EF980F983068F444B321E0EA
S11301F030E0B90102C0660F771F9A95E2F7CB0190
S1130200842B84BB089598EE980F983008F054C05E
S113021041B321E030E0B90102C0660F771F9A951F
S1130220E2F7CB01842B81BB0895611145C088306E
S113023070F44AB321E030E0B90102C0660F771FC1
S11302408A95E2F7CB01809584238ABB089598EFC1
S1130250980F983070F447B321E030E0B90102C040
S1130260660F771F9A95E2F7CB018095842387BBAD
S1130270089590EF980F983070F444B321E030E083
S1130280B90102C0660F771F9A95E2F7CB018095FA
S1130290842384BB089598EE980F983068F441B392
S11302A021E030E0B90102C0660F771F9A95E2F7AA
S11302B0CB018095842381BB0895CF93DF93C82F0E
S11302C06AE070E080E090E00E94240360E081E056
S11302D00E94410060E082E00E94410061E083E00E
S11302E00E944100C4FB662760F984E00E9441003B
S11302F0C5FB662760F985E00E944100C6FB6627BE
S113030060F986E00E9441006C2F661F6627661F15
S113031087E00E9441006AE070E080E090E00E9483
S1130320240360E081E00E94410060E082E00E94DA
S1130330410060E083E00E9441006AE070E080E0F8
S113034090E00E94240361E083E00E9441006AE09F
S113035070E080E090E00E94240380E1C89FE00107
S113036011246C2F6295617084E00E944100C5FBEA
S1130370662760F985E00E944100C6FB662760F9A4
S113038086E00E9441006C2F661F6627661F87E087
S11303900E9441006AE070E080E090E00E94240343
S11303A060E081E00E94410060E082E00E94410040
S11303B060E083E00E9441006AE070E080E090E049
S11303C00E94240361E083E00E9441006AE070E03F
S11303D080E090E00E942403DF91CF9108956AE0C9
S11303E070E080E090E00E94240361E081E00E94DC
S11303F0CF0061E082E00E94CF0061E083E00E94D0
S1130400CF0061E084E00E94CF0061E085E00E94BB
S1130410CF0061E086E00E94CF0061E087E00E94A7
S1130420CF0083E30E945D0182E30E945D0188E2C4
S11304300E945D0181E00E945D018EE00E945D01E9
S113044080E80E945D010895CF93DF93C82F6AE08E
S113045070E080E090E00E94240361E081E00E946B
S1130460410060E082E00E94410061E083E00E947C
S11304704100C4FB662760F984E00E944100C5FB8B
S1130480662760F985E00E944100C6FB662760F993
S113049086E00E9441006C2F661F6627661F87E076
S11304A00E9441006AE070E080E090E00E94240332
S11304B060E083E00E9441006AE070E080E090E048
S11304C00E94240361E083E00E9441006AE070E03E
S11304D080E090E00E94240380E1C89FE0011124A1
S11304E06C2F6295617084E00E944100C5FB662711
S11304F060F985E00E944100C6FB662760F986E04A
S11305000E9441006C2F661F6627661F87E00E94C9
S113051041006AE070E080E090E00E94240360E023
S113052083E00E9441006AE070E080E090E00E9475
S1130530240361E083E00E9441006AE070E080E00F
S113054090E00E942403DF91CF9108950F931F93AD
S1130550CF93DF938C01C0E0D0E009C00E94240255
S11305602196C230D10519F480EC0E945D01F80196
S113057081918F018111F2CFDF91CF911F910F9162
S11305800895CF93DF93D62F813021F480E80E9421
S11305905D0105C0823019F480EC0E945D018FEF8B
S11305A08D0F803138F4C0E084E10E945D01CF5F9B
S11305B0DC13FACFDF91CF910895CF93DF93EC0151
S11305C0862F642F0E94C102CE010E94A602DF91F1
S11305D0CF91089581E00E945D010895CF93DF9348
S11305E000D000D000D0CDB7DEB70E9411030E9426
S11305F0EF0186E0E0E6F0E0DE01119601900D9255
S11306008A95E1F744E062E0CE0101960E94DD02A2
S113061060E177E280E090E00E9424030E94EA0215
S1130620FFCF83B7886083BF83B78F7B83BF12BE3E
S11306308AEF8CBF83B7816083BF83B7826083BF37
S113064083B78B7F83BF0895AB01BC0188B78160FA
S113065088BF12BE411551056105710559F008B6F0
S113066001FEFDCF88B7826088BF415051096109FE
S10D06707109A9F70895F894FFCF6B
S109067A41686D65640097
S9030000FC
